0000000001JOHN DOE                      JOHN.DOE@EXAMPLE.COM            A0000123456
0000000002JANE SMITH                    JANE.SMITH@TEST.ORG             I0000056789
0000000003BOB WILSON                    BOB@COMPANY.CO                  P0000999999
0000000004ALICE JOHNSON                 ALICE.J@MAIL.NET                A0000000000
